{
  "contractName": "BlackjackToken",
  "abi": [
    {
      "inputs": [],
      "stateMutability": "nonpayable",
      "type": "constructor"
    },
    {
      "anonymous": false,
      "inputs": [
        {
          "indexed": true,
          "internalType": "address",
          "name": "from",
          "type": "address"
        },
        {
          "indexed": true,
          "internalType": "address",
          "name": "to",
          "type": "address"
        },
        {
          "indexed": false,
          "internalType": "uint256",
          "name": "value",
          "type": "uint256"
        }
      ],
      "name": "Transfer",
      "type": "event"
    },
    {
      "inputs": [
        {
          "internalType": "address",
          "name": "",
          "type": "address"
        }
      ],
      "name": "balanceOf",
      "outputs": [
        {
          "internalType": "uint256",
          "name": "",
          "type": "uint256"
        }
      ],
      "stateMutability": "view",
      "type": "function",
      "constant": true
    },
    {
      "inputs": [],
      "name": "name",
      "outputs": [
        {
          "internalType": "string",
          "name": "",
          "type": "string"
        }
      ],
      "stateMutability": "view",
      "type": "function",
      "constant": true
    },
    {
      "inputs": [],
      "name": "symbol",
      "outputs": [
        {
          "internalType": "string",
          "name": "",
          "type": "string"
        }
      ],
      "stateMutability": "view",
      "type": "function",
      "constant": true
    },
    {
      "inputs": [],
      "name": "totalSupply",
      "outputs": [
        {
          "internalType": "uint256",
          "name": "",
          "type": "uint256"
        }
      ],
      "stateMutability": "view",
      "type": "function",
      "constant": true
    },
    {
      "inputs": [
        {
          "internalType": "address",
          "name": "to",
          "type": "address"
        },
        {
          "internalType": "uint256",
          "name": "value",
          "type": "uint256"
        }
      ],
      "name": "transfer",
      "outputs": [
        {
          "internalType": "bool",
          "name": "success",
          "type": "bool"
        }
      ],
      "stateMutability": "nonpayable",
      "type": "function"
    },
    {
      "inputs": [
        {
          "internalType": "address",
          "name": "from",
          "type": "address"
        },
        {
          "internalType": "address",
          "name": "to",
          "type": "address"
        },
        {
          "internalType": "uint256",
          "name": "value",
          "type": "uint256"
        }
      ],
      "name": "transferFrom",
      "outputs": [
        {
          "internalType": "bool",
          "name": "success",
          "type": "bool"
        }
      ],
      "stateMutability": "nonpayable",
      "type": "function"
    }
  ],
  "bytecode": "0x60806040526040518060400160405280600f81526020017f426c61636b6a61636b20546f6b656e0000000000000000000000000000000000815250600090816200004a9190620003d7565b506040518060400160405280600381526020017f424a4b000000000000000000000000000000000000000000000000000000000081525060019081620000919190620003d7565b50620f4240600255348015620000a657600080fd5b50600254600360003373ffffffffffffffffffffffffffffffffffffffff1673ffffffffffffffffffffffffffffffffffffffff168152602001908152602001600020819055503373ffffffffffffffffffffffffffffffffffffffff16600073ffffffffffffffffffffffffffffffffffffffff167fddf252ad1be2c89b69c2b068fc378daa952ba7f163c4a11628f55a4df523b3ef6002546040516200014f9190620004cf565b60405180910390a3620004ec565b600081519050919050565b7f4e487b7100000000000000000000000000000000000000000000000000000000600052604160045260246000fd5b7f4e487b7100000000000000000000000000000000000000000000000000000000600052602260045260246000fd5b60006002820490506001821680620001df57607f821691505b602082108103620001f557620001f462000197565b5b50919050565b60008190508160005260206000209050919050565b60006020601f8301049050919050565b600082821b905092915050565b6000600883026200025f7fffffffffffffffffffffffffffffffffffffffffffffffffffffffffffffffff8262000220565b6200026b868362000220565b95508019841693508086168417925050509392505050565b6000819050919050565b6000819050919050565b6000620002b8620002b2620002ac8462000283565b6200028d565b62000283565b9050919050565b6000819050919050565b620002d48362000297565b620002ec620002e382620002bf565b8484546200022d565b825550505050565b600090565b62000303620002f4565b62000310818484620002c9565b505050565b5b8181101562000338576200032c600082620002f9565b60018101905062000316565b5050565b601f82111562000387576200035181620001fb565b6200035c8462000210565b810160208510156200036c578190505b620003846200037b8562000210565b83018262000315565b50505b505050565b600082821c905092915050565b6000620003ac600019846008026200038c565b1980831691505092915050565b6000620003c7838362000399565b9150826002028217905092915050565b620003e2826200015d565b67ffffffffffffffff811115620003fe57620003fd62000168565b5b6200040a8254620001c6565b620004178282856200033c565b600060209050601f8311600181146200044f57600084156200043a578287015190505b620004468582620003b9565b865550620004b6565b601f1984166200045f86620001fb565b60005b82811015620004895784890151825560018201915060208501945060208101905062000462565b86831015620004a95784890151620004a5601f89168262000399565b8355505b6001600288020188555050505b505050505050565b620004c98162000283565b82525050565b6000602082019050620004e66000830184620004be565b92915050565b6109f480620004fc6000396000f3fe608060405234801561001057600080fd5b50600436106100625760003560e01c806306fdde031461006757806318160ddd1461008557806323b872dd146100a357806370a08231146100d357806395d89b4114610103578063a9059cbb14610121575b600080fd5b61006f610151565b60405161007c919061065a565b60405180910390f35b61008d6101df565b60405161009a9190610695565b60405180910390f35b6100bd60048036038101906100b8919061073f565b6101e5565b6040516100ca91906107ad565b60405180910390f35b6100ed60048036038101906100e891906107c8565b610385565b6040516100fa9190610695565b60405180910390f35b61010b61039d565b604051610118919061065a565b60405180910390f35b61013b600480360381019061013691906107f5565b61042b565b60405161014891906107ad565b60405180910390f35b6000805461015e90610864565b80601f016020809104026020016040519081016040528092919081815260200182805461018a90610864565b80156101d75780601f106101ac576101008083540402835291602001916101d7565b820191906000526020600020905b8154815290600101906020018083116101ba57829003601f168201915b505050505081565b60025481565b600081600360008673ffffffffffffffffffffffffffffffffffffffff1673ffffffffffffffffffffffffffffffffffffffff168152602001908152602001600020541015610269576040517f08c379a000000000000000000000000000000000000000000000000000000000815260040161026090610907565b60405180910390fd5b81600360008673ffffffffffffffffffffffffffffffffffffffff1673ffffffffffffffffffffffffffffffffffffffff16815260200190815260200160002060008282546102b89190610956565b9250508190555081600360008573ffffffffffffffffffffffffffffffffffffffff1673ffffffffffffffffffffffffffffffffffffffff168152602001908152602001600020600082825461030e919061098a565b925050819055508273ffffffffffffffffffffffffffffffffffffffff168473ffffffffffffffffffffffffffffffffffffffff167fddf252ad1be2c89b69c2b068fc378daa952ba7f163c4a11628f55a4df523b3ef846040516103729190610695565b60405180910390a3600190509392505050565b60036020528060005260406000206000915090505481565b600180546103aa90610864565b80601f01602080910402602001604051908101604052809291908181526020018280546103d690610864565b80156104235780601f106103f857610100808354040283529160200191610423565b820191906000526020600020905b81548152906001019060200180831161040657829003601f168201915b505050505081565b600081600360003373ffffffffffffffffffffffffffffffffffffffff1673ffffffffffffffffffffffffffffffffffffffff1681526020019081526020016000205410156104af576040517f08c379a00000000000000000000000000000000000000000000000000000000081526004016104a690610907565b60405180910390fd5b81600360003373ffffffffffffffffffffffffffffffffffffffff1673ffffffffffffffffffffffffffffffffffffffff16815260200190815260200160002060008282546104fe9190610956565b9250508190555081600360008573ffffffffffffffffffffffffffffffffffffffff1673ffffffffffffffffffffffffffffffffffffffff1681526020019081526020016000206000828254610554919061098a565b925050819055508273ffffffffffffffffffffffffffffffffffffffff163373ffffffffffffffffffffffffffffffffffffffff167fddf252ad1be2c89b69c2b068fc378daa952ba7f163c4a11628f55a4df523b3ef846040516105b89190610695565b60405180910390a36001905092915050565b600081519050919050565b600082825260208201905092915050565b60005b838110156106045780820151818401526020810190506105e9565b60008484015250505050565b6000601f19601f8301169050919050565b600061062c826105ca565b61063681856105d5565b93506106468185602086016105e6565b61064f81610610565b840191505092915050565b600060208201905081810360008301526106748184610621565b905092915050565b6000819050919050565b61068f8161067c565b82525050565b60006020820190506106aa6000830184610686565b92915050565b600080fd5b600073ffffffffffffffffffffffffffffffffffffffff82169050919050565b60006106e0826106b5565b9050919050565b6106f0816106d5565b81146106fb57600080fd5b50565b60008135905061070d816106e7565b92915050565b61071c8161067c565b811461072757600080fd5b50565b60008135905061073981610713565b92915050565b600080600060608486031215610758576107576106b0565b5b6000610766868287016106fe565b9350506020610777868287016106fe565b92505060406107888682870161072a565b9150509250925092565b60008115159050919050565b6107a781610792565b82525050565b60006020820190506107c2600083018461079e565b92915050565b6000602082840312156107de576107dd6106b0565b5b60006107ec848285016106fe565b91505092915050565b6000806040838503121561080c5761080b6106b0565b5b600061081a858286016106fe565b925050602061082b8582860161072a565b9150509250929050565b7f4e487b7100000000000000000000000000000000000000000000000000000000600052602260045260246000fd5b6000600282049050600182168061087c57607f821691505b60208210810361088f5761088e610835565b5b50919050565b7f426c61636b6a61636b546f6b656e3a20496e73756666696369656e742062616c60008201527f616e636500000000000000000000000000000000000000000000000000000000602082015250565b60006108f16024836105d5565b91506108fc82610895565b604082019050919050565b60006020820190508181036000830152610920816108e4565b9050919050565b7f4e487b7100000000000000000000000000000000000000000000000000000000600052601160045260246000fd5b60006109618261067c565b915061096c8361067c565b925082820390508181111561098457610983610927565b5b92915050565b60006109958261067c565b91506109a08361067c565b92508282019050808211156109b8576109b7610927565b5b9291505056fea26469706673582212201578d2afca5e39930e5c34997a267771f4928b2d5946850492352c8443b3a44f64736f6c63430008130033",
  "immutableReferences": {},
  "source": "// SPDX-License-Identifier: MIT\r\npragma solidity 0.8.19;\r\n\r\ncontract BlackjackToken {\r\n    string public name = \"Blackjack Token\";\r\n    string public symbol = \"BJK\";\r\n    uint256 public totalSupply = 1000000;\r\n\r\n    event Transfer(address indexed from, address indexed to, uint256 value);\r\n\r\n    mapping(address => uint256) public balanceOf;\r\n\r\n    constructor() {\r\n        balanceOf[msg.sender] = totalSupply;\r\n        emit Transfer(address(0), msg.sender, totalSupply);\r\n    }\r\n\r\n    function transfer(address to, uint256 value) public returns (bool success) {\r\n        require(balanceOf[msg.sender] >= value, \"BlackjackToken: Insufficient balance\");\r\n        balanceOf[msg.sender] -= value;\r\n        balanceOf[to] += value;\r\n        emit Transfer(msg.sender, to, value);\r\n        return true;\r\n    }\r\n\r\n    function transferFrom(address from, address to, uint256 value) public returns (bool success) {\r\n        require(balanceOf[from] >= value, \"BlackjackToken: Insufficient balance\");\r\n        balanceOf[from] -= value;\r\n        balanceOf[to] += value;\r\n        emit Transfer(from, to, value);\r\n        return true;\r\n    }\r\n}\r\n",
  "sourcePath": "C:\\Users\\Simas\\Desktop\\VU\\vu-blockchain\\mini_casino-DAPP\\backEnd\\contracts\\BlackjackToken.sol",
  "compiler": {
    "name": "solc",
    "version": "0.8.19+commit.7dd6d404.Emscripten.clang"
  },
  "schemaVersion": "3.4.16",
  "updatedAt": "2024-01-04T00:04:28.389Z",
  "networkType": "ethereum",
  "devdoc": {
    "kind": "dev",
    "methods": {},
    "version": 1
  },
  "userdoc": {
    "kind": "user",
    "methods": {},
    "version": 1
  }
}