{
  "contractName": "MiniCasino",
  "abi": [
    {
      "inputs": [
        {
          "internalType": "address",
          "name": "blackjackTokenAddress",
          "type": "address"
        },
        {
          "internalType": "address",
          "name": "rouletteTokenAddress",
          "type": "address"
        },
        {
          "internalType": "address",
          "name": "pokerTokenAddress",
          "type": "address"
        }
      ],
      "stateMutability": "nonpayable",
      "type": "constructor"
    },
    {
      "stateMutability": "payable",
      "type": "fallback",
      "payable": true
    },
    {
      "inputs": [],
      "name": "BUY_PRICE",
      "outputs": [
        {
          "internalType": "uint256",
          "name": "",
          "type": "uint256"
        }
      ],
      "stateMutability": "view",
      "type": "function",
      "constant": true
    },
    {
      "inputs": [],
      "name": "SELL_PRICE",
      "outputs": [
        {
          "internalType": "uint256",
          "name": "",
          "type": "uint256"
        }
      ],
      "stateMutability": "view",
      "type": "function",
      "constant": true
    },
    {
      "inputs": [],
      "name": "blackjackToken",
      "outputs": [
        {
          "internalType": "contract BlackjackToken",
          "name": "",
          "type": "address"
        }
      ],
      "stateMutability": "view",
      "type": "function",
      "constant": true
    },
    {
      "inputs": [],
      "name": "pokerToken",
      "outputs": [
        {
          "internalType": "contract PokerToken",
          "name": "",
          "type": "address"
        }
      ],
      "stateMutability": "view",
      "type": "function",
      "constant": true
    },
    {
      "inputs": [],
      "name": "rouletteToken",
      "outputs": [
        {
          "internalType": "contract RouletteToken",
          "name": "",
          "type": "address"
        }
      ],
      "stateMutability": "view",
      "type": "function",
      "constant": true
    },
    {
      "stateMutability": "payable",
      "type": "receive",
      "payable": true
    },
    {
      "inputs": [],
      "name": "buyBlackjackTokens",
      "outputs": [],
      "stateMutability": "payable",
      "type": "function",
      "payable": true
    },
    {
      "inputs": [
        {
          "internalType": "uint256",
          "name": "tokensToSell",
          "type": "uint256"
        }
      ],
      "name": "sellBlackjackTokens",
      "outputs": [],
      "stateMutability": "nonpayable",
      "type": "function"
    },
    {
      "inputs": [],
      "name": "buyRouletteTokens",
      "outputs": [],
      "stateMutability": "payable",
      "type": "function",
      "payable": true
    },
    {
      "inputs": [
        {
          "internalType": "uint256",
          "name": "tokensToSell",
          "type": "uint256"
        }
      ],
      "name": "sellRouletteTokens",
      "outputs": [],
      "stateMutability": "nonpayable",
      "type": "function"
    },
    {
      "inputs": [],
      "name": "buyPokerTokens",
      "outputs": [],
      "stateMutability": "payable",
      "type": "function",
      "payable": true
    },
    {
      "inputs": [
        {
          "internalType": "uint256",
          "name": "tokensToSell",
          "type": "uint256"
        }
      ],
      "name": "sellPokerTokens",
      "outputs": [],
      "stateMutability": "nonpayable",
      "type": "function"
    }
  ],
  "bytecode": "0x60806040523480156200001157600080fd5b50604051620017653803806200176583398181016040528101906200003791906200016c565b826000806101000a81548173ffffffffffffffffffffffffffffffffffffffff021916908373ffffffffffffffffffffffffffffffffffffffff16021790555081600160006101000a81548173ffffffffffffffffffffffffffffffffffffffff021916908373ffffffffffffffffffffffffffffffffffffffff16021790555080600260006101000a81548173ffffffffffffffffffffffffffffffffffffffff021916908373ffffffffffffffffffffffffffffffffffffffff160217905550505050620001c8565b600080fd5b600073ffffffffffffffffffffffffffffffffffffffff82169050919050565b6000620001348262000107565b9050919050565b620001468162000127565b81146200015257600080fd5b50565b60008151905062000166816200013b565b92915050565b60008060006060848603121562000188576200018762000102565b5b6000620001988682870162000155565b9350506020620001ab8682870162000155565b9250506040620001be8682870162000155565b9150509250925092565b61158d80620001d86000396000f3fe6080604052600436106100a05760003560e01c8063941c620c11610064578063941c620c1461017e5780639b8fa0f914610188578063bdc9946a146101b1578063d8d24269146101dc578063ed20a7e1146101e6578063fa2a07eb146101f0576100a7565b80630f2c8951146100a95780632e6f1f29146100d45780633311d0ce146100ff57806362b0792e14610128578063705fe4be14610153576100a7565b366100a757005b005b3480156100b557600080fd5b506100be610219565b6040516100cb9190610e5b565b60405180910390f35b3480156100e057600080fd5b506100e961023f565b6040516100f69190610e97565b60405180910390f35b34801561010b57600080fd5b5061012660048036038101906101219190610eed565b610263565b005b34801561013457600080fd5b5061013d610486565b60405161014a9190610f29565b60405180910390f35b34801561015f57600080fd5b50610168610492565b6040516101759190610f29565b60405180910390f35b61018661049e565b005b34801561019457600080fd5b506101af60048036038101906101aa9190610eed565b610634565b005b3480156101bd57600080fd5b506101c661085b565b6040516101d39190610f65565b60405180910390f35b6101e4610881565b005b6101ee610a1b565b005b3480156101fc57600080fd5b5061021760048036038101906102129190610eed565b610bb5565b005b600160009054906101000a900473ffffffffffffffffffffffffffffffffffffffff1681565b60008054906101000a900473ffffffffffffffffffffffffffffffffffffffff1681565b600067015a63bbc199c000826102799190610faf565b90508160008054906101000a900473ffffffffffffffffffffffffffffffffffffffff1673ffffffffffffffffffffffffffffffffffffffff166370a08231336040518263ffffffff1660e01b81526004016102d59190611012565b602060405180830381865afa1580156102f2573d6000803e3d6000fd5b505050506040513d601f19601f820116820180604052508101906103169190611042565b1015610357576040517f08c379a000000000000000000000000000000000000000000000000000000000815260040161034e906110f2565b60405180910390fd5b8047101561039a576040517f08c379a00000000000000000000000000000000000000000000000000000000081526004016103919061115e565b60405180910390fd5b60008054906101000a900473ffffffffffffffffffffffffffffffffffffffff1673ffffffffffffffffffffffffffffffffffffffff166323b872dd3330856040518463ffffffff1660e01b81526004016103f79392919061117e565b6020604051808303816000875af1158015610416573d6000803e3d6000fd5b505050506040513d601f19601f8201168201806040525081019061043a91906111ed565b503373ffffffffffffffffffffffffffffffffffffffff166108fc829081150290604051600060405180830381858888f19350505050158015610481573d6000803e3d6000fd5b505050565b67015a63bbc199c00081565b67016345785d8a000081565b600067016345785d8a0000346104b49190611249565b90508060008054906101000a900473ffffffffffffffffffffffffffffffffffffffff1673ffffffffffffffffffffffffffffffffffffffff166370a08231306040518263ffffffff1660e01b81526004016105109190611012565b602060405180830381865afa15801561052d573d6000803e3d6000fd5b505050506040513d601f19601f820116820180604052508101906105519190611042565b1015610592576040517f08c379a0000000000000000000000000000000000000000000000000000000008152600401610589906112ec565b60405180910390fd5b60008054906101000a900473ffffffffffffffffffffffffffffffffffffffff1673ffffffffffffffffffffffffffffffffffffffff1663a9059cbb33836040518363ffffffff1660e01b81526004016105ed92919061130c565b6020604051808303816000875af115801561060c573d6000803e3d6000fd5b505050506040513d601f19601f8201168201806040525081019061063091906111ed565b5050565b600067015a63bbc199c0008261064a9190610faf565b905081600260009054906101000a900473ffffffffffffffffffffffffffffffffffffffff1673ffffffffffffffffffffffffffffffffffffffff166370a08231336040518263ffffffff1660e01b81526004016106a89190611012565b602060405180830381865afa1580156106c5573d6000803e3d6000fd5b505050506040513d601f19601f820116820180604052508101906106e99190611042565b101561072a576040517f08c379a000000000000000000000000000000000000000000000000000000000815260040161072190611381565b60405180910390fd5b8047101561076d576040517f08c379a00000000000000000000000000000000000000000000000000000000081526004016107649061115e565b60405180910390fd5b600260009054906101000a900473ffffffffffffffffffffffffffffffffffffffff1673ffffffffffffffffffffffffffffffffffffffff166323b872dd3330856040518463ffffffff1660e01b81526004016107cc9392919061117e565b6020604051808303816000875af11580156107eb573d6000803e3d6000fd5b505050506040513d601f19601f8201168201806040525081019061080f91906111ed565b503373ffffffffffffffffffffffffffffffffffffffff166108fc829081150290604051600060405180830381858888f19350505050158015610856573d6000803e3d6000fd5b505050565b600260009054906101000a900473ffffffffffffffffffffffffffffffffffffffff1681565b600067016345785d8a0000346108979190611249565b905080600160009054906101000a900473ffffffffffffffffffffffffffffffffffffffff1673ffffffffffffffffffffffffffffffffffffffff166370a08231306040518263ffffffff1660e01b81526004016108f59190611012565b602060405180830381865afa158015610912573d6000803e3d6000fd5b505050506040513d601f19601f820116820180604052508101906109369190611042565b1015610977576040517f08c379a000000000000000000000000000000000000000000000000000000000815260040161096e90611413565b60405180910390fd5b600160009054906101000a900473ffffffffffffffffffffffffffffffffffffffff1673ffffffffffffffffffffffffffffffffffffffff1663a9059cbb33836040518363ffffffff1660e01b81526004016109d492919061130c565b6020604051808303816000875af11580156109f3573d6000803e3d6000fd5b505050506040513d601f19601f82011682018060405250810190610a1791906111ed565b5050565b600067016345785d8a000034610a319190611249565b905080600260009054906101000a900473ffffffffffffffffffffffffffffffffffffffff1673ffffffffffffffffffffffffffffffffffffffff166370a08231306040518263ffffffff1660e01b8152600401610a8f9190611012565b602060405180830381865afa158015610aac573d6000803e3d6000fd5b505050506040513d601f19601f82011682018060405250810190610ad09190611042565b1015610b11576040517f08c379a0000000000000000000000000000000000000000000000000000000008152600401610b08906114a5565b60405180910390fd5b600260009054906101000a900473ffffffffffffffffffffffffffffffffffffffff1673ffffffffffffffffffffffffffffffffffffffff1663a9059cbb33836040518363ffffffff1660e01b8152600401610b6e92919061130c565b6020604051808303816000875af1158015610b8d573d6000803e3d6000fd5b505050506040513d601f19601f82011682018060405250810190610bb191906111ed565b5050565b600067015a63bbc199c00082610bcb9190610faf565b905081600160009054906101000a900473ffffffffffffffffffffffffffffffffffffffff1673ffffffffffffffffffffffffffffffffffffffff166370a08231336040518263ffffffff1660e01b8152600401610c299190611012565b602060405180830381865afa158015610c46573d6000803e3d6000fd5b505050506040513d601f19601f82011682018060405250810190610c6a9190611042565b1015610cab576040517f08c379a0000000000000000000000000000000000000000000000000000000008152600401610ca290611537565b60405180910390fd5b80471015610cee576040517f08c379a0000000000000000000000000000000000000000000000000000000008152600401610ce59061115e565b60405180910390fd5b600160009054906101000a900473ffffffffffffffffffffffffffffffffffffffff1673ffffffffffffffffffffffffffffffffffffffff166323b872dd3330856040518463ffffffff1660e01b8152600401610d4d9392919061117e565b6020604051808303816000875af1158015610d6c573d6000803e3d6000fd5b505050506040513d601f19601f82011682018060405250810190610d9091906111ed565b503373ffffffffffffffffffffffffffffffffffffffff166108fc829081150290604051600060405180830381858888f19350505050158015610dd7573d6000803e3d6000fd5b505050565b600073ffffffffffffffffffffffffffffffffffffffff82169050919050565b6000819050919050565b6000610e21610e1c610e1784610ddc565b610dfc565b610ddc565b9050919050565b6000610e3382610e06565b9050919050565b6000610e4582610e28565b9050919050565b610e5581610e3a565b82525050565b6000602082019050610e706000830184610e4c565b92915050565b6000610e8182610e28565b9050919050565b610e9181610e76565b82525050565b6000602082019050610eac6000830184610e88565b92915050565b600080fd5b6000819050919050565b610eca81610eb7565b8114610ed557600080fd5b50565b600081359050610ee781610ec1565b92915050565b600060208284031215610f0357610f02610eb2565b5b6000610f1184828501610ed8565b91505092915050565b610f2381610eb7565b82525050565b6000602082019050610f3e6000830184610f1a565b92915050565b6000610f4f82610e28565b9050919050565b610f5f81610f44565b82525050565b6000602082019050610f7a6000830184610f56565b92915050565b7f4e487b7100000000000000000000000000000000000000000000000000000000600052601160045260246000fd5b6000610fba82610eb7565b9150610fc583610eb7565b9250828202610fd381610eb7565b91508282048414831517610fea57610fe9610f80565b5b5092915050565b6000610ffc82610ddc565b9050919050565b61100c81610ff1565b82525050565b60006020820190506110276000830184611003565b92915050565b60008151905061103c81610ec1565b92915050565b60006020828403121561105857611057610eb2565b5b60006110668482850161102d565b91505092915050565b600082825260208201905092915050565b7f4e6f7420656e6f75676820426c61636b6a61636b20746f6b656e7320746f207360008201527f656c6c0000000000000000000000000000000000000000000000000000000000602082015250565b60006110dc60238361106f565b91506110e782611080565b604082019050919050565b6000602082019050818103600083015261110b816110cf565b9050919050565b7f4e6f7420656e6f75676820457468657220696e20746865207265736572766500600082015250565b6000611148601f8361106f565b915061115382611112565b602082019050919050565b600060208201905081810360008301526111778161113b565b9050919050565b60006060820190506111936000830186611003565b6111a06020830185611003565b6111ad6040830184610f1a565b949350505050565b60008115159050919050565b6111ca816111b5565b81146111d557600080fd5b50565b6000815190506111e7816111c1565b92915050565b60006020828403121561120357611202610eb2565b5b6000611211848285016111d8565b91505092915050565b7f4e487b7100000000000000000000000000000000000000000000000000000000600052601260045260246000fd5b600061125482610eb7565b915061125f83610eb7565b92508261126f5761126e61121a565b5b828204905092915050565b7f4e6f7420656e6f75676820426c61636b6a61636b20746f6b656e7320696e207460008201527f6865207265736572766500000000000000000000000000000000000000000000602082015250565b60006112d6602a8361106f565b91506112e18261127a565b604082019050919050565b60006020820190508181036000830152611305816112c9565b9050919050565b60006040820190506113216000830185611003565b61132e6020830184610f1a565b9392505050565b7f4e6f7420656e6f75676820506f6b657220746f6b656e7320746f2073656c6c00600082015250565b600061136b601f8361106f565b915061137682611335565b602082019050919050565b6000602082019050818103600083015261139a8161135e565b9050919050565b7f4e6f7420656e6f75676820526f756c6574746520746f6b656e7320696e20746860008201527f6520726573657276650000000000000000000000000000000000000000000000602082015250565b60006113fd60298361106f565b9150611408826113a1565b604082019050919050565b6000602082019050818103600083015261142c816113f0565b9050919050565b7f4e6f7420656e6f75676820506f6b657220746f6b656e7320696e20746865207260008201527f6573657276650000000000000000000000000000000000000000000000000000602082015250565b600061148f60268361106f565b915061149a82611433565b604082019050919050565b600060208201905081810360008301526114be81611482565b9050919050565b7f4e6f7420656e6f75676820526f756c6574746520746f6b656e7320746f20736560008201527f6c6c000000000000000000000000000000000000000000000000000000000000602082015250565b600061152160228361106f565b915061152c826114c5565b604082019050919050565b6000602082019050818103600083015261155081611514565b905091905056fea2646970667358221220df653d32eb0896feca420fd86585115940ab310817e7e59b71a654aa536a695d64736f6c63430008130033",
  "immutableReferences": {},
  "source": "// SPDX-License-Identifier: MIT\r\npragma solidity 0.8.19;\r\n\r\nimport \"./BlackjackToken.sol\";\r\nimport \"./RouletteToken.sol\";\r\nimport \"./PokerToken.sol\";\r\n\r\ncontract MiniCasino {\r\n    BlackjackToken public blackjackToken;\r\n    RouletteToken public rouletteToken;\r\n    PokerToken public pokerToken;\r\n\r\n    uint256 public constant BUY_PRICE = 0.1 ether;      // essentially it's \r\n    uint256 public constant SELL_PRICE = 0.0975 ether;  // a house advantage. \r\n\r\n    constructor(address blackjackTokenAddress, address rouletteTokenAddress, address pokerTokenAddress) {\r\n        blackjackToken = BlackjackToken(blackjackTokenAddress);\r\n        rouletteToken = RouletteToken(rouletteTokenAddress);\r\n        pokerToken = PokerToken(pokerTokenAddress);\r\n    }\r\n\r\n    function buyBlackjackTokens() public payable {\r\n        uint256 tokensToBuy = msg.value / BUY_PRICE;\r\n        require(blackjackToken.balanceOf(address(this)) >= tokensToBuy, \"Not enough Blackjack tokens in the reserve\");\r\n        blackjackToken.transfer(msg.sender, tokensToBuy);\r\n    }\r\n\r\n    function sellBlackjackTokens(uint256 tokensToSell) public {\r\n        uint256 etherToReturn = tokensToSell * SELL_PRICE;\r\n        require(blackjackToken.balanceOf(msg.sender) >= tokensToSell, \"Not enough Blackjack tokens to sell\");\r\n        require(address(this).balance >= etherToReturn, \"Not enough Ether in the reserve\");\r\n        blackjackToken.transferFrom(msg.sender, address(this), tokensToSell);\r\n        payable(msg.sender).transfer(etherToReturn);\r\n    }\r\n\r\n    function buyRouletteTokens() public payable {\r\n        uint256 tokensToBuy = msg.value / BUY_PRICE;\r\n        require(rouletteToken.balanceOf(address(this)) >= tokensToBuy, \"Not enough Roulette tokens in the reserve\");\r\n        rouletteToken.transfer(msg.sender, tokensToBuy);\r\n    }\r\n\r\n    function sellRouletteTokens(uint256 tokensToSell) public {\r\n        uint256 etherToReturn = tokensToSell * SELL_PRICE;\r\n        require(rouletteToken.balanceOf(msg.sender) >= tokensToSell, \"Not enough Roulette tokens to sell\");\r\n        require(address(this).balance >= etherToReturn, \"Not enough Ether in the reserve\");\r\n        rouletteToken.transferFrom(msg.sender, address(this), tokensToSell);\r\n        payable(msg.sender).transfer(etherToReturn);\r\n    }\r\n\r\n    function buyPokerTokens() public payable {\r\n        uint256 tokensToBuy = msg.value / BUY_PRICE;\r\n        require(pokerToken.balanceOf(address(this)) >= tokensToBuy, \"Not enough Poker tokens in the reserve\");\r\n        pokerToken.transfer(msg.sender, tokensToBuy);\r\n    }\r\n\r\n    function sellPokerTokens(uint256 tokensToSell) public {\r\n        uint256 etherToReturn = tokensToSell * SELL_PRICE;\r\n        require(pokerToken.balanceOf(msg.sender) >= tokensToSell, \"Not enough Poker tokens to sell\");\r\n        require(address(this).balance >= etherToReturn, \"Not enough Ether in the reserve\");\r\n        pokerToken.transferFrom(msg.sender, address(this), tokensToSell);\r\n        payable(msg.sender).transfer(etherToReturn);\r\n    }\r\n\r\n    // Fallback functions\r\n    receive() external payable {}\r\n    fallback() external payable {}\r\n}",
  "sourcePath": "C:\\Users\\Simas\\Desktop\\VU\\vu-blockchain\\mini_casino-DAPP\\backEnd\\contracts\\MiniCasino.sol",
  "compiler": {
    "name": "solc",
    "version": "0.8.19+commit.7dd6d404.Emscripten.clang"
  },
  "schemaVersion": "3.4.16",
  "updatedAt": "2024-01-03T23:31:01.375Z",
  "networkType": "ethereum",
  "devdoc": {
    "kind": "dev",
    "methods": {},
    "version": 1
  },
  "userdoc": {
    "kind": "user",
    "methods": {},
    "version": 1
  }
}