{
  "contractName": "MiniCasino",
  "abi": [
    {
      "inputs": [],
      "name": "RATE",
      "outputs": [
        {
          "internalType": "uint256",
          "name": "",
          "type": "uint256"
        }
      ],
      "stateMutability": "view",
      "type": "function",
      "constant": true
    },
    {
      "inputs": [
        {
          "internalType": "address",
          "name": "",
          "type": "address"
        }
      ],
      "name": "chipBalances",
      "outputs": [
        {
          "internalType": "uint256",
          "name": "",
          "type": "uint256"
        }
      ],
      "stateMutability": "view",
      "type": "function",
      "constant": true
    },
    {
      "inputs": [
        {
          "internalType": "uint256",
          "name": "ethAmount",
          "type": "uint256"
        }
      ],
      "name": "buyChips",
      "outputs": [],
      "stateMutability": "payable",
      "type": "function",
      "payable": true
    },
    {
      "inputs": [],
      "name": "getChipBalance",
      "outputs": [
        {
          "internalType": "uint256",
          "name": "",
          "type": "uint256"
        }
      ],
      "stateMutability": "view",
      "type": "function",
      "constant": true
    }
  ],
  "bytecode": "0x608060405234801561000f575f80fd5b506105978061001d5f395ff3fe60806040526004361061003e575f3560e01c8063664e9704146100425780637d1b8be51461006c578063a140c9a014610096578063eedfcb67146100b2575b5f80fd5b34801561004d575f80fd5b506100566100ee565b6040516100639190610266565b60405180910390f35b348015610077575f80fd5b506100806100f3565b60405161008d9190610266565b60405180910390f35b6100b060048036038101906100ab91906102ad565b610136565b005b3480156100bd575f80fd5b506100d860048036038101906100d39190610332565b61023a565b6040516100e59190610266565b60405180910390f35b606481565b5f805f3373ffffffffffffffffffffffffffffffffffffffff1673ffffffffffffffffffffffffffffffffffffffff1681526020019081526020015f2054905090565b662386f26fc10000811015610180576040517f08c379a0000000000000000000000000000000000000000000000000000000008152600401610177906103b7565b60405180910390fd5b8034146101c2576040517f08c379a00000000000000000000000000000000000000000000000000000000081526004016101b990610445565b60405180910390fd5b5f6064662386f26fc10000836101d891906104bd565b6101e291906104ed565b9050805f803373ffffffffffffffffffffffffffffffffffffffff1673ffffffffffffffffffffffffffffffffffffffff1681526020019081526020015f205f82825461022f919061052e565b925050819055505050565b5f602052805f5260405f205f915090505481565b5f819050919050565b6102608161024e565b82525050565b5f6020820190506102795f830184610257565b92915050565b5f80fd5b61028c8161024e565b8114610296575f80fd5b50565b5f813590506102a781610283565b92915050565b5f602082840312156102c2576102c161027f565b5b5f6102cf84828501610299565b91505092915050565b5f73ffffffffffffffffffffffffffffffffffffffff82169050919050565b5f610301826102d8565b9050919050565b610311816102f7565b811461031b575f80fd5b50565b5f8135905061032c81610308565b92915050565b5f602082840312156103475761034661027f565b5b5f6103548482850161031e565b91505092915050565b5f82825260208201905092915050565b7f4d696e696d756d20707572636861736520697320302e303120455448000000005f82015250565b5f6103a1601c8361035d565b91506103ac8261036d565b602082019050919050565b5f6020820190508181035f8301526103ce81610395565b9050919050565b7f53656e7420455448206d757374206d61746368207468652070757263686173655f8201527f20616d6f756e7400000000000000000000000000000000000000000000000000602082015250565b5f61042f60278361035d565b915061043a826103d5565b604082019050919050565b5f6020820190508181035f83015261045c81610423565b9050919050565b7f4e487b71000000000000000000000000000000000000000000000000000000005f52601260045260245ffd5b7f4e487b71000000000000000000000000000000000000000000000000000000005f52601160045260245ffd5b5f6104c78261024e565b91506104d28361024e565b9250826104e2576104e1610463565b5b828204905092915050565b5f6104f78261024e565b91506105028361024e565b92508282026105108161024e565b9150828204841483151761052757610526610490565b5b5092915050565b5f6105388261024e565b91506105438361024e565b925082820190508082111561055b5761055a610490565b5b9291505056fea26469706673582212206078e3a7150f1809c28b8fb8d782221d338ce97b06057d26a18cc51563ee1c1764736f6c63430008150033",
  "immutableReferences": {},
  "source": "// SPDX-License-Identifier: MIT\r\npragma solidity ^0.8.19;\r\n\r\ncontract MiniCasino {\r\n    uint256 public constant RATE = 100; // 100 tokens per 0.01 ETH\r\n    mapping(address => uint256) public chipBalances;\r\n\r\n    function buyChips(uint256 ethAmount) public payable {\r\n        require(ethAmount >= 0.01 ether, \"Minimum purchase is 0.01 ETH\");\r\n        require(msg.value == ethAmount, \"Sent ETH must match the purchase amount\");\r\n        \r\n        uint256 tokensToBuy = (ethAmount / 0.01 ether) * RATE;\r\n        chipBalances[msg.sender] += tokensToBuy;\r\n    }\r\n\r\n    function getChipBalance() public view returns (uint256) {\r\n        return chipBalances[msg.sender];\r\n    }\r\n}\r\n",
  "sourcePath": "C:\\Users\\Simas\\Desktop\\VU\\vu-blockchain\\mini_casino-DAPP\\backEnd\\contracts\\MiniCasino.sol",
  "compiler": {
    "name": "solc",
    "version": "0.8.21+commit.d9974bed.Emscripten.clang"
  },
  "schemaVersion": "3.4.16",
  "updatedAt": "2024-01-03T18:29:26.588Z",
  "networkType": "ethereum",
  "devdoc": {
    "kind": "dev",
    "methods": {},
    "version": 1
  },
  "userdoc": {
    "kind": "user",
    "methods": {},
    "version": 1
  }
}