{
  "contractName": "MiniCasino",
  "abi": [
    {
      "inputs": [
        {
          "internalType": "address",
          "name": "",
          "type": "address"
        }
      ],
      "name": "chipBalances",
      "outputs": [
        {
          "internalType": "uint256",
          "name": "",
          "type": "uint256"
        }
      ],
      "stateMutability": "view",
      "type": "function",
      "constant": true
    },
    {
      "inputs": [],
      "name": "buyChips",
      "outputs": [],
      "stateMutability": "payable",
      "type": "function",
      "payable": true
    },
    {
      "inputs": [],
      "name": "getChipBalance",
      "outputs": [
        {
          "internalType": "uint256",
          "name": "",
          "type": "uint256"
        }
      ],
      "stateMutability": "view",
      "type": "function",
      "constant": true
    }
  ],
  "bytecode": "0x608060405234801561000f575f80fd5b5061035c8061001d5f395ff3fe608060405260043610610033575f3560e01c80637d1b8be5146100375780639c3930ad14610061578063eedfcb671461006b575b5f80fd5b348015610042575f80fd5b5061004b6100a7565b60405161005891906101ac565b60405180910390f35b6100696100ea565b005b348015610076575f80fd5b50610091600480360381019061008c9190610223565b610180565b60405161009e91906101ac565b60405180910390f35b5f805f3373ffffffffffffffffffffffffffffffffffffffff1673ffffffffffffffffffffffffffffffffffffffff1681526020019081526020015f2054905090565b5f341161012c576040517f08c379a0000000000000000000000000000000000000000000000000000000008152600401610123906102a8565b60405180910390fd5b345f803373ffffffffffffffffffffffffffffffffffffffff1673ffffffffffffffffffffffffffffffffffffffff1681526020019081526020015f205f82825461017791906102f3565b92505081905550565b5f602052805f5260405f205f915090505481565b5f819050919050565b6101a681610194565b82525050565b5f6020820190506101bf5f83018461019d565b92915050565b5f80fd5b5f73ffffffffffffffffffffffffffffffffffffffff82169050919050565b5f6101f2826101c9565b9050919050565b610202816101e8565b811461020c575f80fd5b50565b5f8135905061021d816101f9565b92915050565b5f60208284031215610238576102376101c5565b5b5f6102458482850161020f565b91505092915050565b5f82825260208201905092915050565b7f53656e642045544820746f2062757920636869707300000000000000000000005f82015250565b5f61029260158361024e565b915061029d8261025e565b602082019050919050565b5f6020820190508181035f8301526102bf81610286565b9050919050565b7f4e487b71000000000000000000000000000000000000000000000000000000005f52601160045260245ffd5b5f6102fd82610194565b915061030883610194565b92508282019050808211156103205761031f6102c6565b5b9291505056fea264697066735822122023cc3b5035ecf8a7ff3f6f683c16a5ba411c68957924c6ef89a9c0bfa58620ff64736f6c63430008150033",
  "immutableReferences": {},
  "source": "// SPDX-License-Identifier: MIT\r\npragma solidity ^0.8.19;\r\n\r\ncontract MiniCasino {\r\n    mapping(address => uint256) public chipBalances;\r\n\r\n    function buyChips() public payable {\r\n        require(msg.value > 0, \"Send ETH to buy chips\");\r\n        chipBalances[msg.sender] += msg.value;\r\n    }\r\n\r\n    function getChipBalance() public view returns (uint256) {\r\n        return chipBalances[msg.sender];\r\n    }\r\n}\r\n",
  "sourcePath": "C:\\Users\\Simas\\Desktop\\VU\\vu-blockchain\\smart_contract\\contracts\\MiniCasino.sol",
  "compiler": {
    "name": "solc",
    "version": "0.8.21+commit.d9974bed.Emscripten.clang"
  },
  "schemaVersion": "3.4.16",
  "updatedAt": "2024-01-03T15:32:41.086Z",
  "networkType": "ethereum",
  "devdoc": {
    "kind": "dev",
    "methods": {},
    "version": 1
  },
  "userdoc": {
    "kind": "user",
    "methods": {},
    "version": 1
  }
}